{
  "contractName": "Election",
  "abi": [
    {
      "constant": true,
      "inputs": [
        {
          "internalType": "uint256",
          "name": "",
          "type": "uint256"
        }
      ],
      "name": "candidates",
      "outputs": [
        {
          "internalType": "string",
          "name": "name",
          "type": "string"
        },
        {
          "internalType": "uint256",
          "name": "votesNumber",
          "type": "uint256"
        }
      ],
      "payable": false,
      "stateMutability": "view",
      "type": "function"
    },
    {
      "constant": true,
      "inputs": [],
      "name": "electionName",
      "outputs": [
        {
          "internalType": "string",
          "name": "",
          "type": "string"
        }
      ],
      "payable": false,
      "stateMutability": "view",
      "type": "function"
    },
    {
      "constant": true,
      "inputs": [],
      "name": "owner",
      "outputs": [
        {
          "internalType": "address",
          "name": "",
          "type": "address"
        }
      ],
      "payable": false,
      "stateMutability": "view",
      "type": "function"
    },
    {
      "constant": true,
      "inputs": [],
      "name": "totalVotes",
      "outputs": [
        {
          "internalType": "uint256",
          "name": "",
          "type": "uint256"
        }
      ],
      "payable": false,
      "stateMutability": "view",
      "type": "function"
    },
    {
      "constant": true,
      "inputs": [
        {
          "internalType": "address",
          "name": "",
          "type": "address"
        }
      ],
      "name": "voters",
      "outputs": [
        {
          "internalType": "string",
          "name": "name",
          "type": "string"
        },
        {
          "internalType": "uint256",
          "name": "candidateChosen",
          "type": "uint256"
        },
        {
          "internalType": "bool",
          "name": "isAuthorised",
          "type": "bool"
        },
        {
          "internalType": "bool",
          "name": "hasVoted",
          "type": "bool"
        }
      ],
      "payable": false,
      "stateMutability": "view",
      "type": "function"
    },
    {
      "constant": false,
      "inputs": [
        {
          "internalType": "string",
          "name": "_electionName",
          "type": "string"
        }
      ],
      "name": "startElection",
      "outputs": [],
      "payable": false,
      "stateMutability": "nonpayable",
      "type": "function"
    },
    {
      "constant": false,
      "inputs": [
        {
          "internalType": "string",
          "name": "_candidateName",
          "type": "string"
        }
      ],
      "name": "addCandidate",
      "outputs": [],
      "payable": false,
      "stateMutability": "nonpayable",
      "type": "function"
    },
    {
      "constant": true,
      "inputs": [],
      "name": "getCandidatesNumber",
      "outputs": [
        {
          "internalType": "uint256",
          "name": "",
          "type": "uint256"
        }
      ],
      "payable": false,
      "stateMutability": "view",
      "type": "function"
    },
    {
      "constant": false,
      "inputs": [
        {
          "internalType": "address",
          "name": "_voterAddress",
          "type": "address"
        }
      ],
      "name": "authorizeVoter",
      "outputs": [],
      "payable": false,
      "stateMutability": "nonpayable",
      "type": "function"
    },
    {
      "constant": false,
      "inputs": [
        {
          "internalType": "uint256",
          "name": "candidateIndex",
          "type": "uint256"
        }
      ],
      "name": "vote",
      "outputs": [],
      "payable": false,
      "stateMutability": "nonpayable",
      "type": "function"
    }
  ],
  "bytecode": "0x608060405234801561001057600080fd5b50610c57806100206000396000f3fe608060405234801561001057600080fd5b506004361061009e5760003560e01c80638da5cb5b116100665780638da5cb5b146102db578063a3ec138d14610325578063bd0c3928146103ff578063f544bed81461041d578063fd47b368146104d85761009e565b80630121b93f146100a35780630d15fd77146100d15780633477ee2e146100ef578063462e91ec1461019d57806385e8e7a714610258575b600080fd5b6100cf600480360360208110156100b957600080fd5b810190808035906020019092919050505061051c565b005b6100d96106a2565b6040518082815260200191505060405180910390f35b61011b6004803603602081101561010557600080fd5b81019080803590602001909291905050506106a8565b6040518080602001838152602001828103825284818151815260200191508051906020019080838360005b83811015610161578082015181840152602081019050610146565b50505050905090810190601f16801561018e5780820380516001836020036101000a031916815260200191505b50935050505060405180910390f35b610256600480360360208110156101b357600080fd5b81019080803590602001906401000000008111156101d057600080fd5b8201836020820111156101e257600080fd5b8035906020019184600183028401116401000000008311171561020457600080fd5b91908080601f016020809104026020016040519081016040528093929190818152602001838380828437600081840152601f19601f820116905080830192505050505050509192919290505050610771565b005b61026061083a565b6040518080602001828103825283818151815260200191508051906020019080838360005b838110156102a0578082015181840152602081019050610285565b50505050905090810190601f1680156102cd5780820380516001836020036101000a031916815260200191505b509250505060405180910390f35b6102e36108d8565b604051808273ffffffffffffffffffffffffffffffffffffffff1673ffffffffffffffffffffffffffffffffffffffff16815260200191505060405180910390f35b6103676004803603602081101561033b57600080fd5b81019080803573ffffffffffffffffffffffffffffffffffffffff1690602001909291905050506108fd565b60405180806020018581526020018415151515815260200183151515158152602001828103825286818151815260200191508051906020019080838360005b838110156103c15780820151818401526020810190506103a6565b50505050905090810190601f1680156103ee5780820380516001836020036101000a031916815260200191505b509550505050505060405180910390f35b6104076109df565b6040518082815260200191505060405180910390f35b6104d66004803603602081101561043357600080fd5b810190808035906020019064010000000081111561045057600080fd5b82018360208201111561046257600080fd5b8035906020019184600183028401116401000000008311171561048457600080fd5b91908080601f016020809104026020016040519081016040528093929190818152602001838380828437600081840152601f19601f8201169050808301925050505050505091929192905050506109ec565b005b61051a600480360360208110156104ee57600080fd5b81019080803573ffffffffffffffffffffffffffffffffffffffff169060200190929190505050610a46565b005b600260003373ffffffffffffffffffffffffffffffffffffffff1673ffffffffffffffffffffffffffffffffffffffff16815260200190815260200160002060020160009054906101000a900460ff1661057557600080fd5b600260003373ffffffffffffffffffffffffffffffffffffffff1673ffffffffffffffffffffffffffffffffffffffff16815260200190815260200160002060020160019054906101000a900460ff16156105cf57600080fd5b80600260003373ffffffffffffffffffffffffffffffffffffffff1673ffffffffffffffffffffffffffffffffffffffff168152602001908152602001600020600101819055506001600260003373ffffffffffffffffffffffffffffffffffffffff1673ffffffffffffffffffffffffffffffffffffffff16815260200190815260200160002060020160016101000a81548160ff0219169083151502179055506003818154811061067e57fe5b90600052602060002090600202016001016000815480929190600101919050555050565b60045481565b600381815481106106b557fe5b9060005260206000209060020201600091509050806000018054600181600116156101000203166002900480601f0160208091040260200160405190810160405280929190818152602001828054600181600116156101000203166002900480156107615780601f1061073657610100808354040283529160200191610761565b820191906000526020600020905b81548152906001019060200180831161074457829003601f168201915b5050505050908060010154905082565b6000809054906101000a900473ffffffffffffffffffffffffffffffffffffffff1673ffffffffffffffffffffffffffffffffffffffff163373ffffffffffffffffffffffffffffffffffffffff16146107ca57600080fd5b600360405180604001604052808381526020016000815250908060018154018082558091505090600182039060005260206000209060020201600090919290919091506000820151816000019080519060200190610829929190610afd565b506020820151816001015550505050565b60018054600181600116156101000203166002900480601f0160208091040260200160405190810160405280929190818152602001828054600181600116156101000203166002900480156108d05780601f106108a5576101008083540402835291602001916108d0565b820191906000526020600020905b8154815290600101906020018083116108b357829003601f168201915b505050505081565b6000809054906101000a900473ffffffffffffffffffffffffffffffffffffffff1681565b6002602052806000526040600020600091509050806000018054600181600116156101000203166002900480601f0160208091040260200160405190810160405280929190818152602001828054600181600116156101000203166002900480156109a95780601f1061097e576101008083540402835291602001916109a9565b820191906000526020600020905b81548152906001019060200180831161098c57829003601f168201915b5050505050908060010154908060020160009054906101000a900460ff16908060020160019054906101000a900460ff16905084565b6000600380549050905090565b336000806101000a81548173ffffffffffffffffffffffffffffffffffffffff021916908373ffffffffffffffffffffffffffffffffffffffff1602179055508060019080519060200190610a42929190610b7d565b5050565b6000809054906101000a900473ffffffffffffffffffffffffffffffffffffffff1673ffffffffffffffffffffffffffffffffffffffff163373ffffffffffffffffffffffffffffffffffffffff1614610a9f57600080fd5b6001600260008373ffffffffffffffffffffffffffffffffffffffff1673ffffffffffffffffffffffffffffffffffffffff16815260200190815260200160002060020160006101000a81548160ff02191690831515021790555050565b828054600181600116156101000203166002900490600052602060002090601f016020900481019282601f10610b3e57805160ff1916838001178555610b6c565b82800160010185558215610b6c579182015b82811115610b6b578251825591602001919060010190610b50565b5b509050610b799190610bfd565b5090565b828054600181600116156101000203166002900490600052602060002090601f016020900481019282601f10610bbe57805160ff1916838001178555610bec565b82800160010185558215610bec579182015b82811115610beb578251825591602001919060010190610bd0565b5b509050610bf99190610bfd565b5090565b610c1f91905b80821115610c1b576000816000905550600101610c03565b5090565b9056fea265627a7a7231582074797a3dac69f80acdc1052c0f2152b0ad3438da6da17e9c4f8bcca0469f218664736f6c63430005100032",
  "source": "//SPDX_Licence-Identifier: UNLICENSED\npragma solidity >=0.4.22 <0.9.0;\n\ncontract Election {\n\n    struct Candidate {\n        string name;\n        uint votesNumber;\n    }\n\n    struct Voter {\n        string name;\n        uint candidateChosen;\n        bool isAuthorised;\n        bool hasVoted;\n    }\n\n    address public owner;\n    string public electionName;\n\n    mapping(address => Voter) public voters;\n    Candidate[] public candidates;\n    uint public totalVotes;\n\n    /// Owner is who triggered the election\n    function startElection(string memory _electionName) public {\n        owner = msg.sender;\n        electionName = _electionName;\n    }\n\n    modifier ownerOnly() {\n        require(msg.sender == owner);\n        _;\n    }\n\n    /// Only owner can addCandidates\n    function addCandidate(string memory _candidateName) ownerOnly public {\n        candidates.push(Candidate(_candidateName, 0));\n    }\n\n    function getCandidatesNumber() public view returns(uint){\n        return candidates.length;\n    }\n\n    function authorizeVoter(address _voterAddress) ownerOnly public {\n        voters[_voterAddress].isAuthorised = true;\n    }\n\n    function vote(uint candidateIndex) public {\n        /// Needs to be authorized to vote\n        require(voters[msg.sender].isAuthorised);\n        /// Check if voter has not voted yet\n        require(!voters[msg.sender].hasVoted);\n        voters[msg.sender].candidateChosen = candidateIndex;\n        voters[msg.sender].hasVoted = true;\n\n        /// Increase candidate vote count by 1\n        candidates[candidateIndex].votesNumber++;\n    }\n\n}\n",
  "sourcePath": "/Users/ctw01015-admin/Desktop/Critical Techworks/elections_dapp/contracts/Election.sol",
  "compiler": {
    "name": "solc",
    "version": "0.5.16+commit.9c3226ce.Emscripten.clang"
  },
  "schemaVersion": "3.4.10",
  "updatedAt": "2022-10-02T18:33:58.936Z",
  "devdoc": {
    "methods": {}
  },
  "userdoc": {
    "methods": {
      "addCandidate(string)": {
        "notice": "Only owner can addCandidates"
      },
      "startElection(string)": {
        "notice": "Owner is who triggered the election"
      }
    }
  }
}